:100000000208AE90E6BAE0F51BD32202051CC0E060
:10001000C083C08285100C85110D1206DA85080E8A
:1000200085090F1206E51206C87410F0D082D0833D
:10003000D0E0320206F912061DD20090E605E05427
:10004000FDF02202070090E50DE0D330E401C32269
:10005000C3222202070090E6B9E0700302010F14E8
:10006000700302016324FE70030201BB24FB7003D2
:1000700002010914700302010314607B14607E24E2
:100080000560030201F71207FE400302020390E637
:10009000BBE024FE602714603824FD601114602743
:1000A00024067050E50A90E6B3F0E50B803C1200A0
:1000B00046503EE51290E6B3F0E513802DE50C9036
:1000C000E6B3F0E50D8023E50E90E6B3F0E50F8092
:1000D0001990E6BAE0FF120B84AA06A9077B01EA91
:1000E000494B600DEE90E6B3F0EF90E6B4F00202FB
:1000F000030201F20201F2120C24020203120C2D7F
:100100000202031200030202031206F002020312AB
:100110000C3D400302020390E6B8E0247F60151412
:1001200060192402703AA200E43325E0FFA202E441
:10013000334F8018E490E740F08016120AC2400462
:100140007D0180027D00120AA1E0540190E740F099
:10015000E4A3F090E68AF090E68B7402F0020203CA
:100160000201F2120C3F400302020390E6B8E024C1
:10017000FE60142402600302020390E6BAE0B401B8
:1001800004C200807E806B90E6BAE0702C120AC236
:1001900040047D0180027D00120AA1E054FEF0902F
:1001A000E6BCE05480131313541FFFE0540F2F904C
:1001B000E683F0E04420F0804A8037120C4150433F
:1001C00090E6B8E024FE601A2402702690E6BAE0B9
:1001D000B40104D200802C90E6BAE0B4020280237D
:1001E0008010120AC240047D0180027D00120AA123
:1001F000800D90E6A080081209C2500790E6A0E0AA
:100200004401F090E6A0E04480F022E709F608DF20
:10021000FA8046E709F208DFFA803E88828C83E79D
:1002200009F0A3DFFA8032E309F608DFFA8078E309
:1002300009F208DFFA807088828C83E309F0A3DF7B
:10024000FA806489828A83E0A3F608DFFA805889FD
:10025000828A83E0A3F208DFFA804C80D280FA80A1
:10026000C680D4806980F28033801080A680EA80C6
:100270009A80A880DA80E280CA803389828A83ECFF
:10028000FAE493A3C8C582C8CCC583CCF0A3C8C583
:1002900082C8CCC583CCDFE9DEE7800D89828A8302
:1002A000E493A3F608DFF9ECFAA9F0EDFB228982CA
:1002B0008A83ECFAE0A3C8C582C8CCC583CCF0A37E
:1002C000C8C582C8CCC583CCDFEADEE880DB898282
:1002D0008A83E493A3F208DFF980CC88F0EF600111
:1002E0000E4E60C388F0ED2402B4040050B9F582CC
:1002F000EB2402B4040050AF232345822390025B19
:1003000073EF8DF0A4A8F0CF8CF0A428CE8DF0A4CC
:100310002EFE22BB0110E58229F582E5833AF583A2
:10032000E0F5F0A3E0225009E92582F886F008E61E
:1003300022BBFE0AE92582F8E2F5F008E222E58315
:100340002AF583E993F5F0A3E99322F8BB0111E5BF
:100350008229F582E5833AF583E8F0E5F0A3F022FF
:100360005009E92582C8F608A6F022BBFE09E92556
:1003700082C8F2E5F008F222EB9FF5F0EA9E42F027
:10038000E99D42F0E89C45F022EF4E6012EF6001DB
:100390000EEDBB010B89828A83F0A3DFFCDEFA221B
:1003A00089F05007F709DFFCA9F022BBFEFCF30936
:1003B000DFFCA9F022E4F534F533F532F531C20360
:1003C000C200C202C2011200367E087F008E0A8F70
:1003D0000B75120875131275080875091C7510083D
:1003E00075114A751408751578EE54C0700302042F
:1003F000B67535007536808E378F38C374AC9FFF65
:1004000074089ECF2402CF3400FEE48F308E2FF587
:100410002EF52DF52CF52BF52AF529AF30AE2FADA5
:100420002EAC2DAB2CAA2BA92AA829C312037850D5
:1004300033E538252CF582E537352BF583E0FFE5EC
:1004400036252CF582E535352BF583EFF0E52C24A8
:1004500001F52CE4352BF52BE4352AF52AE4352972
:10046000F52980B785350A85360B74002480FF7422
:100470000834FFFEC3E5139FF513E5129EF512C382
:10048000E50D9FF50DE50C9EF50CC3E50F9FF50FEF
:10049000E50E9EF50EC3E5099FF509E5089EF508F2
:1004A000C3E5119FF511E5109EF510C3E5159FF505
:1004B00015E5149EF514D2E843D82090E668E04490
:1004C00009F090E65CE0443DF0D2AF90E680E02099
:1004D000E105D205120AD290E680E054F7F0538E7F
:1004E000F8C203120052300105120056C201300357
:1004F000F212005050EDC203120BAF20001690E62E
:1005000082E030E704E020E1EF90E682E030E604AC
:10051000E020E0E4120B2D1206FD80C7C0E0C0F021
:10052000C083C082C0D075D000C000C001C002C06E
:1005300003C004C005C006C007758C3C758ABF05A2
:1005400016E516D394144005751600B20430040560
:1005500043A020800353A0DF90158EE07002A3E03B
:10056000600F90158EE4F0A3F0751901F51775185A
:10057000A0901590E07002A3E06009901590E4F05F
:10058000A3F0F519E51914600D14602E14603C8079
:10059000009015948038901596120B59E518451760
:1005A000702F751902901592E0FEA3E0FF7C007D8C
:1005B000501203018E178F188017901598120B593F
:1005C000E5184517700B751903800690159A120BE4
:1005D00059901576740DF0A374ACF0D3E51894001F
:1005E000E517648094804008E51815187002151707
:1005F0007524017525157526407B017A15796612DB
:100600000A41D007D006D005D004D003D002D001D3
:10061000D000D0D0D082D083D0F0D0E03290E600AD
:10062000E04410F0538EF843AF07E490E670F0908A
:10063000E601E054FCF090E67174C0F075B2FF750D
:10064000B30F75B4FF75B5FF75B6FF75A03CE4F543
:10065000B0F5B175B808758921758C3C758ABF7580
:100660008D06758B06D28CD2A9FE7F26FD120B66F5
:100670007F1C7DFF120B667F267D007A1579401264
:100680000B6A7F107D007B017A15798C12038990AB
:100690001594740FF0A3740AF090800074FFF04377
:1006A000B01053B0EF90E61274A2F0000000E49096
:1006B000E691F0000000F00000002290E740F0E436
:1006C00090E68AF090E68B225391EF90E65D227AD5
:1006D000E779407D017B017E0022850D82850C83B8
:1006E000A37402F022850F82850E83A37407F02283
:1006F000E51B1206BB04F0D32253D8EF32D32232CB
:10070000020BD400020C1100020BFE00020BE900E8
:1007100002000E00020B01000206FF00020C430063
:10072000020C4400020C4500020C4600020C47007B
:10073000020C4800020C4900020C4A00020C4B005B
:10074000020C4C00020C4300020C4D00020C4E0047
:10075000020C4F00020C5000020C5100020C52001F
:10076000020C5300020C4300020C4300020C430035
:10077000020C5400020C5500020C5600020C5700EB
:10078000020C5800020C5900020C5A00020C5B00CB
:10079000020C5C00020C5D00020C5E00020C5F00AB
:1007A000020C6000020C6100020C6200020C63008B
:1007B000020C6400020C65008E398F3A90E600E06E
:1007C00054187012E53A2401FFE43539C313F539A2
:1007D000EF13F53A801590E600E05418FFBF100BB8
:1007E000E53A25E0F53AE53933F539E53A153AAE1B
:1007F00039700215394E6005120BC380EE22D322E8
:1008000012010002000000404705920803000102A7
:1008100000010A06000200000040010009022E004B
:1008200001010080320904000004FF0000000705F8
:10083000020200020007050402000200070586020A
:100840000002000705880200020009022E000101D3
:100850000080320904000004FF00000007050202C6
:100860004000000705040240000007058602400022
:100870000007058802400000040309040C0345003A
:100880006C006D0065006800240341006E006C0080
:10089000530067006E006C00200076006500720057
:1008A0002E00200033002E00300030000000787F42
:1008B000E4F6D8FD75813A0208F50203B5E493A386
:1008C000F8E493A34003F68001F208DFF48029E402
:1008D00093A3F85407240CC8C333C4540F4420C84E
:1008E000834004F456800146F6DFE4800B010204E5
:1008F0000810204080900C35E47E019360BCA3FF7B
:10090000543F30E509541FFEE493A360010ECF5419
:10091000C025E060A840B8E493A3FAE493A3F8E408
:1009200093A3C8C582C8CAC583CAF0A3C8C582C874
:10093000CAC583CADFE9DEE780BEE4F5B0F5B1EDF4
:10094000B40E00507590094CF828287302097602FD
:10095000097B02098002098502098A02098F0209BE
:100960009402099902099E0209A30209A80209AD8D
:100970000209B20209B775B001803F75B002803A32
:1009800075B004803575B008803075B020802B7547
:10099000B040802675B080802175B101801C75B192
:1009A00002801775B104801275B108800D75B11001
:1009B000800875B120800375B1408F80EE540FF52B
:1009C000902290E6B9E0244D60422403706F90E6D7
:1009D000B8E0B4C01978407CE77D017B017A1579D5
:1009E000667E007F261202DB1206BF7426F090E6B8
:1009F000B8E0644070491206C0F090E6A0E020E143
:100A0000F978667C151206CF7F26802C90E6B8E038
:100A10006440702B1206C0F090E6A0E020E1F97867
:100A20009C7C151206CF7F101202DB788C7C157A25
:100A300015799C1206D37F101202DB8002D322C3E9
:100A4000228B218A228923E4F527F528AB24AA25C5
:100A5000A926120B72ACF0AB21AA22A9238F828E99
:100A600083120313FFAEF06D7002EE6C601FAD28B1
:100A700012093AAB21AA22A923120B72AB24AA2590
:100A8000A9268F828E83E5F08DF012034B0528E5B1
:100A90002870020527C3940EE5276480948040AC3B
:100AA00022EC4EFEED4F2466F582740C3EF583E495
:100AB00093FF3395E0FEEF24A1FFEE34E68F82F53D
:100AC000832290E6BCE0547EFF7E00E0D394807CDD
:100AD000002230050990E680E0440AF0800790E6A5
:100AE00080E04408F07FDC7E051207B890E65D7474
:100AF000FFF090E65FF05391EF90E680E054F7F05E
:100B000022C0E0C083C08290E680E030E712850812
:100B10000C85090D1206DA85100E85110F1206E5F7
:100B20001206C87420F0D082D083D0E03290E682E2
:100B3000E030E004E020E60B90E682E030E119E0EE
:100B400030E71590E680E04401F07F147E00120744
:100B5000B890E680E054FEF022E0FFA3E090157428
:100B6000CFF0A3EFF0227A1579667B011203897E1C
:100B70000022E52825E0FFE52733FE8F82F583126A
:100B80000313FD22A907AE14AF158F828E83A3E055
:100B900064037017AD0119ED7001228F828E83E01E
:100BA0007C002FFDEC3EFEAF0580DFE4FEFF2290CF
:100BB000E682E044C0F090E681F043870100000047
:100BC0000000227400F58690FDA57C05A3E5824512
:100BD0008370F922C0E0C083C082D2011206C874BB
:100BE00001F0D082D083D0E032C0E0C083C082D296
:100BF000031206C87408F0D082D083D0E032C0E07F
:100C0000C083C0821206C87404F0D082D083D0E0C2
:100C100032C0E0C083C0821206C87402F0D082D015
:100C200083D0E032E51A1206BB04F0D32290E6BA74
:100C3000E0F51AD3220217000001190000D322D3D5
:100C400022D3223232323232323232323232323203
:100C50003232323232323232323232323232323274
:100C6000323232323232000102020303040405053B
:00000001FF
