:10000000020E4690E6BAE0F542D322020A4DC0E065
:10001000C083C08285100C85110D120CE885080E76
:1000200085090F120CF3120CE17410F0D082D0830A
:10003000D0E032020046120B30D20090E605E054C8
:10004000FDF022020C0053D8EF3232020861C322C5
:10005000D32232020C00EC4D6011E8497017ED33E9
:10006000EC3304600DE4FCFFFEFD22E933E83304C9
:1000700070F80202061201D158046009E4CC248110
:10008000500628500902021028400302020DC0E069
:10009000EB4A7044B98006D0E0FB0201FCEF4E70E1
:1000A0001CBD8008EBFFEAFEE9FD80EBE98DF0A4C2
:1000B000FEE5F002013FE9CDF9EAFEEBFFEF89F042
:1000C000A4FCE5F0CE89F0A42EFFE435F0CD89F054
:1000D000A42DFEE435F08067EF4E7005BD80D7801B
:1000E000C3EF8BF0A4ACF0EE8BF0A42CFCE435F065
:1000F000F8EF8AF0A42CE5F038FCE433CB8DF0A4C3
:100100002CFCE5F03BF8EE8AF0A42CFCE5F038F886
:10011000E433CF89F0A42CFCE5F038CF3400CE894D
:10012000F0A42FFFE5F03EFEE433C98DF0A42EFECF
:10013000E5F039CD8AF0A42FFFE5F03EFEE43DFD69
:1001400033D0E0FB50070BBB000F020210EC2CFC7D
:10015000EF33FFEE33FEED33FD0201E875F0208052
:100160000E75F010800575F0087D007E007F00336D
:1001700092D530D5031203E9EC334010EF33FFEE94
:1001800033FEED33FDEC33FCD5F0ED22E5F0247EBB
:10019000A2D513CC92E7CDCEFF22EDD2E7CD33EC42
:1001A0003392D524814006E4FFFEFDFC22FCE4CF1F
:1001B000CECDCC24E0501174FF80EDC3CC13CCCD58
:1001C00013CDCE13CECF13CF0470F030D5DE0203A3
:1001D000E9E9D2E7C933E833F892D5EDD2E7CD3378
:1001E000EC33FC5002B2D522EC30E7100FBF000C0C
:1001F0000EBE00080DBD00040BEB6014A2D5EB137E
:10020000FCED92E7FD2274FFFCFDFEFF22E480F886
:10021000A2D574FF13FC7D80E480EFE709F608DFC8
:10022000FA8046E709F208DFFA803E88828C83E78D
:1002300009F0A3DFFA8032E309F608DFFA8078E3F9
:1002400009F208DFFA807088828C83E309F0A3DF6B
:10025000FA806489828A83E0A3F608DFFA805889ED
:10026000828A83E0A3F208DFFA804C80D280FA8091
:10027000C680D4806980F28033801080A680EA80B6
:100280009A80A880DA80E280CA803389828A83ECEF
:10029000FAE493A3C8C582C8CCC583CCF0A3C8C573
:1002A00082C8CCC583CCDFE9DEE7800D89828A83F2
:1002B000E493A3F608DFF9ECFAA9F0EDFB228982BA
:1002C0008A83ECFAE0A3C8C582C8CCC583CCF0A36E
:1002D000C8C582C8CCC583CCDFEADEE880DB898272
:1002E0008A83E493A3F208DFF980CC88F0EF600101
:1002F0000E4E60C388F0ED2402B4040050B9F582BC
:10030000EB2402B4040050AF232345822390026BF8
:1003100073BB010CE58229F582E5833AF583E0227F
:100320005006E92582F8E622BBFE06E92582F8E2BE
:1003300022E58229F582E5833AF583E49322BB0125
:100340000689828A83F0225002F722BBFE01F32243
:10035000F8BB010DE58229F582E5833AF583E8F0E3
:10036000225006E92582C8F622BBFE05E92582C88F
:10037000F222EF8DF0A4A8F0CF8CF0A428CE8DF05F
:10038000A42EFE22BB0110E58229F582E5833AF511
:1003900083E0F5F0A3E0225009E92582F886F00811
:1003A000E622BBFE0AE92582F8E2F5F008E222E542
:1003B000832AF583E993F5F0A3E99322F8BB0111B1
:1003C000E58229F582E5833AF583E8F0E5F0A3F0CC
:1003D000225009E92582C8F608A6F022BBFE09E9E9
:1003E0002582C8F2E5F008F222C3E49FFFE49EFEF6
:1003F000E49DFDE49CFC22EB9FF5F0EA9E42F0E9CF
:100400009D42F0E89C45F022EF4E6012EF60010E35
:10041000EDBB010B89828A83F0A3DFFCDEFA22891F
:10042000F05007F709DFFCA9F022BBFEFCF309DF5F
:10043000FCA9F02290E6B9E070030204ED14700309
:1004400002054124FE700302059924FB7003020497
:10045000E71470030204E114607B14607E240560DD
:10046000030205D5120CFE40030205E190E6BBE055
:1004700024FE602714603824FD60111460272406D0
:100480007050E50A90E6B3F0E50B803C1213235060
:100490003EE51290E6B3F0E513802DE50C90E6B34F
:1004A000F0E50D8023E50E90E6B3F0E50F8019909E
:1004B000E6BAE0FF12120CAA06A9077B01EA494B33
:1004C000600DEE90E6B3F0EF90E6B4F00205E102C5
:1004D00005D00205D01213360205E1120BF8020511
:1004E000E11200030205E112132D0205E112134788
:1004F00040030205E190E6B8E0247F60151460191E
:100500002402703AA200E43325E0FFA202E4334F54
:100510008018E490E740F0801612117540047D01C8
:1005200080027D00121154E0540190E740F0E4A3F2
:10053000F090E68AF090E68B7402F00205E1020585
:10054000D012134940030205E190E6B8E024FE60B2
:1005500014240260030205E190E6BAE0B40104C28B
:1005600000807E806B90E6BAE0702C12117540041A
:100570007D0180027D00121154E054FEF090E6BC33
:10058000E05480131313541FFFE0540F2F90E683A1
:10059000F0E04420F0804A803712134B504390E63D
:1005A000B8E024FE601A2402702690E6BAE0B40196
:1005B00004D200802C90E6BAE0B4020280238010BE
:1005C00012117540047D0180027D00121154800DCE
:1005D00090E6A08008120969500790E6A0E0440167
:1005E000F090E6A0E04480F022E4F52CF52BF52A0B
:1005F000F529C203C200C202C2011200367E0D7F7D
:10060000008E0A8F0B75120D75131275080D750982
:100610001C75100D75114A75140D751578EE54C0C2
:1006200070030206EA752D00752E808E2F8F30C361
:1006300074AC9FFF740D9ECF2402CF3400FEE48F74
:10064000288E27F526F525F524F523F522F521AF8B
:1006500028AE27AD26AC25AB24AA23A922A821C306
:100660001203F75033E5302524F582E52F3523F5C5
:1006700083E0FFE52E2524F582E52D3523F583EF74
:10068000F0E5242401F524E43523F523E43522F5AF
:1006900022E43521F52180B7852D0A852E0B7400C3
:1006A0002480FF740D34FFFEC3E5139FF513E5129C
:1006B0009EF512C3E50D9FF50DE50C9EF50CC3E507
:1006C0000F9FF50FE50E9EF50EC3E5099FF509E5B1
:1006D000089EF508C3E5119FF511E5109EF510C3BE
:1006E000E5159FF515E5149EF514D2E843D8209042
:1006F000E668E04409F090E65CE0443DF0D2AF905B
:10070000E680E020E105D20612118590E680E054F3
:10071000F7F0538EF8C203121007300105120434AB
:10072000C2013003F212004E50EDC20312125D20DE
:10073000001690E682E030E704E020E1EF90E682E8
:10074000E030E604E020E0E41211E012005080C73F
:100750008D368B378A388939E94A4B700302086035
:10076000E53A700302086053A87FEF24FE60780426
:10077000600302085D53A0F753A0EFE4F53BE53BAF
:10078000C3953A504AE4F53C000000053CE53CB412
:1007900040F6120F4853A0EFE53E5536600543B0D2
:1007A00001800353B0FE000000120F02B408E612ED
:1007B0000F5253A0EF120ED2600543B001800353D5
:1007C000B0FE000000120F02B410E7053B80AF53EB
:1007D000A0EF43A008E4F53C000000053CE53CB474
:1007E00040F653A0F780765390F75390FBE4F53B27
:1007F000E53BC3953A5050E4F53C000000053CE56C
:100800003CB440F6120F485390FBE53E5536600568
:1008100043900280035390FD000000439004120FA8
:1008200005B408E3120F525390FB120ED260054339
:10083000900280035390FD000000439004120F05C6
:10084000B410E4053B80A95390FB439008E4F53CC9
:10085000000000053CE53CB440F65390F743A88007
:1008600022C0E0C083C082C085C084C08675860077
:10087000C0D075D000C000C001C002C003C006C017
:100880000790E678E030E206751B0602094B90E619
:1008900078E020E10CE51B64026006751B07020985
:1008A0004BE51B24FE605F14603624FE70030209D2
:1008B0003C24FC70030209482408600302094BAB86
:1008C00017AA18A919AF1A051A8F82758300120387
:1008D0001190E679F0E51A65167070751B05806B4E
:1008E00090E679E0AB17AA18A919AE1A8E82758323
:1008F00000120350751B02E5166401704E90E678F5
:10090000E04420F08045E51624FEB51A0790E6780D
:10091000E04420F0E51614B51A0A90E678E0444069
:10092000F0751B0090E679E0AB17AA18A919AE1A6A
:100930008E82758300120350051A800F90E678E0CE
:100940004440F0751B008003751B005391DFD007F6
:10095000D006D003D002D001D000D0D0D086D08431
:10096000D085D082D083D0E03290E6B9E0244F60C9
:100970005224FE7003020A1824036003020A4990FD
:10098000E6B8E024C0602324806003020A4B78406C
:100990007CE77D017B017A3079827E007F2612021E
:1009A000EB120CCB7426F0020A4B120CCBF090E643
:1009B000A0E020E1F978827C307F26120CD4D204AA
:1009C000020A4B90E6B8E024C060132480707C7863
:1009D000407CE7120CB8120CCB7438F0806D120C0E
:1009E000CBF090E6A0E020E1F978A87C307AE779B6
:1009F00040120CBCE4903030F0A37480F078327C6C
:100A000030120CB87A307B307D427F5112129E7FBB
:100A100051121085D204803390E6B8E06440702B08
:100A2000120CCCF090E6A0E020E1F978727C307FE7
:100A300010120CD478E07C307D017B017A30797221
:100A40007E007F101202EB8002D322C322C0E0C0DE
:100A5000F0C083C082C0D075D000C000C004C00503
:100A6000C006C007758C3C758ABF051CE51CD39475
:100A7000144005751C00B20530050543A020800315
:100A800053A0DF9030E2E07002A3E0600F9030E20C
:100A9000E4F0A3F0751F01F51D751EA09030E4E091
:100AA0007002A3E060099030E4E4F0A3F0F51FE5E4
:100AB0001F14600D14602E14603C80009030E8809C
:100AC000389030EA12130AE51E451D702F751F027B
:100AD0009030E6E0FEA3E0FF7C007D501203728EB2
:100AE0001D8F1E80179030EC12130AE51E451D70F5
:100AF0000B751F0380069030EE12130A903092742B
:100B00004EF0A37420F0D3E51E9400E51D6480949C
:100B1000804008E51E151E7002151DD007D006D0B6
:100B200005D004D000D0D0D082D083D0F0D0E03235
:100B300090E600E04410F0538EF843AF07E490E6EF
:100B400070F090E672F090E671F090E682E054FD6D
:100B5000F090E601E054FEF0E054FDF0E4F5B2F56B
:100B6000B643B43C43B30F43B5F175B8087589215A
:100B7000758C3C758ABF758D06758B06D28CD2A993
:100B8000FE7F26FD7B017A3079821204087E007F89
:100B9000107D007B017A3079E01204089030E8740F
:100BA000EBF0A37484F0120DAE12133F7A3079A8E3
:100BB0007532017533307534A8E4F531E5312480A0
:100BC000FFE433FE121237AB320534E534AA33703A
:100BD00002053314F9EF12033E0531E531C39438B1
:100BE00040DA90E61274A2F0000000E490E691F082
:100BF000000000F00000002290E6BAE0F541D322A8
:100C00000212BA000212F7000212E4000212CF0030
:100C100002000E000211B40002004A00020052005D
:100C200002134D0002134E0002134F000213500036
:100C30000213510002135200021353000213540016
:100C4000021355000200520002135600021357000F
:100C5000021358000213590002135A0002135B00DA
:100C600002135C0002005200020052000200520017
:100C700002135D0002135E0002135F0002136000A6
:100C80000213610002136200021363000213640086
:100C90000213650002136600021367000213680066
:100CA0000213690002136A0002136B0002136C0046
:100CB00002136D0002136E007A3079A87D017B016A
:100CC0007E007F380202EB90E740F0E490E68AF085
:100CD00090E68B227D017B017AE779407E0002025B
:100CE000EB5391EF90E65D22850D82850C83A37412
:100CF00002F022850F82850E83A37407F022D3228F
:100D000012010002000000404705940803000102A0
:100D100000010A06000200000040010009022E0046
:100D200001010080320904000004FF0000000705F3
:100D30000202000200070504020002000705860205
:100D40000002000705880200020009022E000101CE
:100D50000080320904000004FF00000007050202C1
:100D6000400000070504024000000705860240001D
:100D70000007058802400000040309040C03450035
:100D80006C006D0065006800240341006E006C007B
:100D9000530067006E006C004E0065007700200075
:100DA00076002E0033002E00300030000000AE3FF1
:100DB000AF40EF54F88E3F4406120F1F4408120F45
:100DC0001F54EF120F1F541FF540AE3FAF40EE54BB
:100DD000F0120F294410120F294420120F29543FFA
:100DE000F53F8F4053A0FB5390FE53A0F75390F76D
:100DF00053A0EF5390FB120F337F017E001211239B
:100E0000120F157D56120750120F157F0212075050
:100E1000120F33AF40AE3F1211237B017A3079FEBF
:100E2000753A07E4FFFE1211237B017A31790C75C4
:100E30003A07121123120F157D550F120750120F8A
:100E4000157F02020750787FE4F6D8FD75814202D3
:100E50000E8D0205E9E493A3F8E493A34003F68022
:100E600001F208DFF48029E493A3F85407240CC8A6
:100E7000C333C4540F4420C8834004F45680014651
:100E8000F6DFE4800B010204081020408090131963
:100E9000E47E019360BCA3FF543F30E509541FFE7C
:100EA000E493A360010ECF54C025E060A840B8E4ED
:100EB00093A3FAE493A3F8E493A3C8C582C8CAC570
:100EC00083CAF0A3C8C582C8CAC583CADFE9DEE702
:100ED00080BEE53A24FFFFE434FFFEC3EF953BFFFD
:100EE000EE9400FEEF25E0FFEE33AB37AA38A939C8
:100EF0008F82F583120384FFE53D55F0FEE53E5FEA
:100F00004E2243A010E53DC313F53DE53E13F53EEB
:100F1000053CE53C227B017A3079F0753A0722F5F1
:100F200040AE3FAF408E3FEF22F53F8F40AE3FAF28
:100F300040EE227B017A3079F0753A07228F378EA6
:100F4000368D358C34E53322753D00753E80E4F5F1
:100F50003C22753D80753E00E4F53C228F33E5333D
:100F6000C3940E505BAE04AF05E4120161120F3D55
:100F700025E025E024A8F582E43430F583E0F8A3E9
:100F8000E0F9A3E0FAA3E0FB120056120F3DC39470
:100F900007501012019AE53325E024FEF582E4346F
:100FA000308016AF37AE36AD35AC3412019AE5332A
:100FB00025E024FEF582E43430F583EEF0A3EFF073
:100FC000228E318F3290E600E054187012E5322400
:100FD00001FFE43531C313F531EF13F5328015907D
:100FE000E600E05418FFBF100BE53225E0F532E5CE
:100FF0003133F531E5321532AE31700215314E60C4
:101000000512127180EE2230043CE4F531F532AF66
:1010100032C007E53225E0FFE53133FE74822FF55B
:101020008274303EF583E0FCA3E0FDD007120F5C34
:101030000532E53270020531C3940EE5319400406B
:10104000CE121047C20422120F33AF40AE3F12112E
:1010500023120F157D557F011207507B017A3079DD
:10106000FE753A077D017F01120750120F157D555D
:101070007F021207507B017A31790C753A077D01A6
:101080007F02020750AD0790E678E020E6F9C2E95A
:1010900090E678E04480F0ED25E090E679F090E687
:1010A00078E030E0F990E678E04440F090E678E0CF
:1010B00020E6F990E678E030E1D6D2E922AC07905C
:1010C000E678E020E6F9E51B702590E678E04480BC
:1010D000F0EC25E0440190E679F08D16AF03A90706
:1010E0007517018A188919E4F51A751B03D322C3F1
:1010F00022AC0790E678E020E6F9E51B702390E645
:1011000078E04480F0EC25E090E679F08D16AF03AE
:10111000A9077517018A188919E4F51A751B01D3F7
:1011200022C3228B378A388939E94A4B6025E53A50
:101130006021E4FDEDC3953A5019AB37AA38A939BF
:1011400075F002EDA4F58285F083EE8FF01203BCFA
:101150000D80E122EC4EFEED4F246FF58274133EBC
:10116000F583E493FF3395E0FEEF24A1FFEE34E630
:101170008F82F5832290E6BCE0547EFF7E00E0D3B0
:1011800094807C002230060990E680E0440AF080DA
:101190000790E680E04408F07FDC7E05120FC190E6
:1011A000E65D74FFF090E65FF05391EF90E680E02B
:1011B00054F7F022C0E0C083C08290E680E030E7C0
:1011C0001285080C85090D120CE885100E85110F8B
:1011D000120CF3120CE17420F0D082D083D0E032F4
:1011E00090E682E030E004E020E60B90E682E0301A
:1011F000E119E030E71590E680E04401F07F147ECD
:1012000000120FC190E680E054FEF022A907AE1450
:10121000AF158F828E83A3E064037017AD0119EDC3
:101220007001228F828E83E07C002FFDEC3EFEAFAA
:101230000580DFE4FEFF22AC06EC90311BF0EFA34B
:10124000F07A317B1B7D027F5112129E7A317B1A1C
:101250007D017F5112128290311AE0FF2290E682C6
:10126000E044C0F090E681F04387010000000000F8
:10127000227400F58690FDA57C05A3E58245837068
:10128000F9221210BDE51B24FA600E146006240733
:1012900070F3D322E4F51BD322E4F51BD322121002
:1012A000F1E51B24FA600E146006240770F3D322C4
:1012B000E4F51BD322E4F51BD322C0E0C083C08237
:1012C000D201120CE17401F0D082D083D0E032C0A0
:1012D000E0C083C082D203120CE17408F0D082D047
:1012E00083D0E032C0E0C083C082120CE17404F00D
:1012F000D082D083D0E032C0E0C083C082120CE143
:101300007402F0D082D083D0E032E0FFA3E09030CE
:1013100090CFF0A3EFF0D20422C104021D0000011F
:101320001F000090E50DE0D330E401C322E5421236
:101330000CC704F0D322E541120CC704F0D322E419
:10134000F51BD2E9D2AF22D322D322D322323232BA
:10135000323232323232323232323232323232326D
:10136000323232323232323232323232323232008F
:0913700001020203030404050557
:00000001FF
